:020000040800F2
:1000000028070020A11A00081D0500081F05000888
:1000100023050008270500082B0500080000000044
:100020000000000000000000000000002F05000894
:100030003105000800000000330500083505000800
:10004000BB1A0008BB1A0008BB1A0008BB1A00083C
:10005000BB1A0008BB1A0008BB1A0008BB1A00082C
:10006000BB1A0008BB1A0008BB1A0008BB1A00081C
:10007000BB1A0008BB1A0008BB1A0008BB1A00080C
:10008000BB1A0008BB1A0008BB1A0008BB1A0008FC
:10009000BB1A0008BB1A0008BB1A0008BB1A0008EC
:1000A000BB1A0008BB1A0008BB1A0008BB1A0008DC
:1000B000BB1A0008BB1A0008871A0008BB1A000800
:1000C000BB1A0008BB1A0008BB1A0008BB1A0008BC
:1000D000BB1A0008F5170008035000085119000862
:1000E000BB1A0008BB1A0008BB1A0008BB1A00089C
:1000F000BB1A0008BB1A0008BB1A0008BB1A00088C
:10010000BB1A0008BB1A0008BB1A0008BB1A00087B
:10011000BB1A0008BB1A0008BB1A0008BB1A00086B
:10012000BB1A0008BB1A0008BB1A0008BB1A00085B
:1001300000F002F800F094F80AA090E8000C824465
:100140008344AAF10107DA4501D100F089F8AFF242
:10015000090EBAE80F0013F0010F18BFFB1A43F0A5
:1001600001031847DC760000FC760000103A24BF3B
:1001700078C878C1FAD8520724BF30C830C144BF0C
:1001800004680C607047000000230024002500264E
:10019000103A28BF78C1FBD8520728BF30C148BFEA
:1001A0000B6070476E2905F04C84702905F09D8125
:1001B000662907F0D782652907F0D482672907F0FE
:1001C000D1826129AFF3008003681B0A28BF41F088
:1001D0008001692905F00E81642905F00B817529DC
:1001E00005F008816F2905F05987782905F06981A4
:1001F000E92905F0F386E42905F0F086F52905F0F4
:10020000ED86EF2905F05687F82905F06881036827
:10021000DB0928BF41F08001632905F0628673295C
:1002200005F06786E32906F07380F32906F07880ED
:10023000002070471FB59DE8030005F061FB05F045
:10024000B9FF04000020002106F004FE401C60609D
:100250000020002106F0E8FDE0601FBD10B510BDD4
:1002600006F04BF91146FFF7E5FF00F009F806F03C
:1002700077F903B4FFF7F2FF03BC01F05DFA000069
:100280001FB500260027B246002404206F490870DD
:100290000020487001F0E6F94FF4A06001F020FC66
:1002A0004FF4E13001F05AFA4FF4E13001F0AEFAC8
:1002B0004FF4165001F0FAFA472140F2E73001F00E
:1002C000B7FB00F029FA00206149086001F0A4F9A9
:1002D00001F0CEF800F08CFA00F0FEFD5DA005F014
:1002E00017F8642001F0FBF900205F49C1F8A40170
:1002F00004F0DAFD03E04FF4FA7001F0F0F903F0D6
:1003000075FA0028F7D10120514908604FF41670A2
:1003100001F0E5F900205449C1F8A40153A004F00C
:10032000F7FF92E0701C0646282820D3544B554A0C
:100330005549564801F039F9462001F046F818B9F8
:1003400001F09FF8524908605148006807F03CF8F6
:10035000CDE902014C48007800904C4803784848A9
:100360000278484801784BA004F0D2FF00260AF139
:1003700001008246B0F5966F07D303F0A6FA10B9D4
:100380004FA004F0C5FF4FF0000A781C07467828FC
:1003900008D303F02DFB51A1554801F00DFB0027B8
:1003A00004F006FD002004F05EFD044614B1204672
:1003B00003F063FB0A2001F092F92449522000F077
:1003C00027FB002841D1214840782049097840EA9C
:1003D0000125294647A004F09BFF29464AA004F0C6
:1003E00097FFB5F5806F2ED100204B4908700DE0C6
:1003F00017480068C0431C49C1F8A401FA2001F065
:100400006EF945480078401C43490870424800781E
:100410000628EDDB0020404908700CE001200C4963
:10042000091F08604FF4FA7001F059F93A48007852
:10043000401C39490870384800780328EEDB00205A
:100440000349091F0860002500BF6BE7000000207A
:10045000A4812142486172647761726520696E6986
:1004600074204F4B0D0A000000802142B3C9B9A689
:10047000BDD3C8EBB7FECEF1C6F70D0A00000000F1
:1004800005000020040000200700002006000020D6
:100490000800002074656D703A25642E25642020C4
:1004A0002068756D693A25642E256420206C696783
:1004B00068743A252E3166206C780D0A0000000021
:1004C000D2D1B3C9B9A6B7A2CBCDD2BBB8F6D0C4EE
:1004D000CCF8B0FCA3A10D0A000000004F6E654EE1
:1004E00065745F53656E64446174610D0A000000B9
:1004F00000380140BFA8C0E0D0CDA3BA283078258D
:10050000303458290D0A0000636172547970653DDA
:1005100025640D0A000000000C000020704700BF99
:10052000FEE700BFFEE700BFFEE700BFFEE7704743
:1005300070477047704700000CB500200190009094
:100540006C48006840F480306A49086000BF694820
:10055000006800F4003000900198401C0190009861
:1005600018B90198B0F5A06FF1D16248006800F4A5
:10057000003010B10120009001E0002000900098B0
:10058000012843D15C48006840F010005A490860D7
:100590000846006820F0030008600846006840F044
:1005A0000200086053484068524948600846406865
:1005B00048600846406840F48060486008464068EB
:1005C00020F47C1048600846406840F4E810486019
:1005D0000846006840F08070086000BF4548006829
:1005E00000F000700028F9D04248406820F0030075
:1005F000404948600846406840F00200486000BF3B
:100600003C48406800F00C000828F9D10CBD10B53A
:10061000FFF792FF10BD10B53648006840F00100AA
:100620003449086008464068344908403149486008
:1006300008460068324908402E49086008460068AC
:1006400020F4802008600846406820F4FE004860DE
:100650004FF41F008860FFF7DAFF4FF00060294970
:10066000086010BD10B5002100200022214B5B68FE
:1006700003F00C0121B1042906D0082928D107E094
:10068000214B224C236027E01F4B204C236023E0AA
:10069000184B5B6803F47010164B5B6803F48032F0
:1006A000022303EB904022B9194B4343174C2360BC
:1006B0000DE0104B5B6803F4003323B1144B43434C
:1006C000124C236003E0104B4343104C236003E0C3
:1006D0000D4B0E4C236000BF00BF064B5B68C3F39D
:1006E00003130C4CE15C094B1B68CB40074C2360A7
:1006F00010BD000000100240002002400000FFF882
:10070000FFFFF6FE08ED00E000127A001000002066
:1007100000093D001400002008B50121182001F057
:1007200069FD10208DF8030003208DF802004FF4BE
:100730000050ADF8000069462B4801F09FFA4FF4D5
:100740000051294801F047FB4FF48050ADF80000FC
:100750006946264801F092FA4FF48051234801F08F
:100760003AFB4FF40050ADF8000069461F4801F015
:1007700085FA4FF400511D4801F02DFB4FF48040E5
:10078000ADF800006946194801F078FA4FF480414D
:10079000164801F020FB4FF40040ADF80000694618
:1007A000124801F06BFA4FF40041104801F013FBBE
:1007B0004FF48070ADF8000069460C4801F05EFA15
:1007C0004FF48071094801F008FB4FF40070ADF858
:1007D00000006946054801F051FA4FF400710348E2
:1007E00001F0F9FA08BD000000100140000C0140C2
:1007F00008B50121042001F0FDFC0121084601F0AB
:10080000F9FC0121F74801F00AFB4FF40160ADF853
:10081000000010208DF803006946F34801F02EFA1D
:10082000F24800F02CFC08BDF8B504460D46002047
:1008300000907E2000EA44068DF800608DF801509B
:10084000012000F04CFF1021E74801F0C6FA022217
:100850006946E64800F088FC1021E34801F0BBFA45
:10086000F8BD1CB50446002000907E2000EA44003C
:1008700040F080000190012000F031FF1021DA48A3
:1008800001F0ABFA012201A9D84800F06DFC012269
:100890006946D64800F098FC1021D34801F09BFA35
:1008A0009DF800001CBD70B505460C460026284684
:1008B000FFF7D7FF064646EA04012846FFF7B4FFD4
:1008C00070BD70B505460C4600262846FFF7C9FFE7
:1008D000064626EA04012846FFF7A6FF70BD2DE96B
:1008E000FE4F0646884691469A46DDF830B0022013
:1008F00002900020019000900C2E06D00E2E09D1FF
:10090000122001901020009005E077200190302007
:10091000009000E000BF00BF019840F0800102207D
:10092000FFF782FF80210420FFF7CBFF0021012089
:10093000FFF77AFF80210A20FFF7B5FF002505E0C9
:1009400018F805100920FFF76FFF6D1C4D45F7D310
:1009500031460120FFF768FF0C2E03D180210D20C6
:10096000FFF7A1FF4FF4487500BF0420FFF779FFA0
:1009700004466D1E35B104F0010018B900982040FE
:100980000028F2D080210D20FFF79BFF95B30620B1
:10099000FFF767FF00F01B0068BB00200290019882
:1009A000204000F0010008B1012002900C2E24D15B
:1009B0000A20FFF756FF04460C20FFF752FF00F015
:1009C00007072FB1601E07EBC000CBF8000002E064
:1009D000E000CBF8000004B90124122C00DD122441
:1009E000002505E00920FFF73CFF0AF805006D1C13
:1009F000A542F7D301E00220029080210C20FFF7EE
:100A000052FF00210120FFF70FFF0298BDE8FE8F83
:100A100070B588B005460C4608210846FFF751FF1F
:100A200007210D20FFF700FF03211420FFF73BFFF4
:100A30008DF8085007A802AB012202A900900C20F3
:100A4000FFF74DFF06464EB90798102806D19DF8CE
:100A5000080020709DF80900607000E00226304612
:100A600008B070BDF0B587B00546002708210846DC
:100A7000FFF727FF00210D20FFF7D6FE80210E2073
:100A8000FFF71FFF93208DF8040020208DF805004C
:100A900006A801AB022201A900900C20FFF71FFF5E
:100AA000064686B9002407E001A8005D285501A884
:100AB000005D4740601CC4B2042CF5DB01A8005D5A
:100AC000B84200D0022680210E20FFF7ECFE30460F
:100AD00007B0F0BD2DE9F0410746884615460421D0
:100AE0000520FFF7EEFE00210120FFF79DFE80218B
:100AF0000A20FFF7D8FE002405E0395D0920FFF742
:100B000093FE601CC4B24445F7DB03210120FFF7CC
:100B10008BFEFF2400BF0520FFF7A3FE0646601EE4
:100B2000C4B21CB106F004000028F4D02220FFF764
:100B300098FE28702120FFF794FE6870BDE8F081D0
:100B400070B588B0054693208DF8080070208DF8A8
:100B5000090000208DF80E0000240BE0295D02AA98
:100B6000A01C11549DF80E00295D48408DF80E0020
:100B7000601CC4B2042CF1DB0DF10F02072102A8A6
:100B8000FFF7A8FF08210846FFF79BFE07A802AB66
:100B9000092202A900900C20FFF7A1FE064626B903
:100BA0000798182801D1002600E00226304608B038
:100BB00070BD2DE9F04387B006460F469046994632
:100BC0008DF804608DF80570002406E018F8041014
:100BD00001AAA01C1154601CC4B2062CF6DB002430
:100BE0000EE000000002300000080140003001402B
:100BF00019F8041001AA04F108001154601CC4B2D1
:100C0000062CF5DB06A801AB0C2201A900900E20F2
:100C1000FFF765FE05462DB90820FFF722FE00F01C
:100C2000080000B90225284607B0BDE8F083F0B5FA
:100C300087B005460E4630208DF804008DF805502B
:100C40000DF10602022101A8FFF744FF06A801AB3F
:100C5000042201A900900C20FFF741FE074667B966
:100C60000698902809D1002404E001A8005D3055C1
:100C7000601CC4B2102CF8DB00E00227384607B035
:100C8000F0BDF0B587B006460F46A0208DF80400F1
:100C90008DF805600DF10602022101A8FFF71AFF89
:100CA00006A801AB042201A900900C20FFF717FE53
:100CB000054645B90698042805D19DF8040000F0C2
:100CC0000F000A2800D002250DBB002404E0385D87
:100CD00001A90855601CC4B2102CF8DB05AA10212C
:100CE00001A8FFF7F7FE06A801AB122201A90090A8
:100CF0000C20FFF7F4FD054645B90698042805D1F8
:100D00009DF8040000F00F000A2800D002252846B4
:100D100007B0F0BD2DE9F04188B007460E46904679
:100D20008DF808708DF809600DF10A02022102A801
:100D3000FFF7D0FE07A802AB042202A900900C2006
:100D4000FFF7CDFD044644B90798042805D19DF866
:100D5000080000F00F000A2800D00224E4B90025A2
:100D600005E018F8050002A94855681CC5B2102D09
:100D7000F7DB03AA042102A8FFF7ACFE00200790CE
:100D800007A802AB062202A900900C20FFF7A7FDDE
:100D90000446022C00D00024F4B9B0208DF80800DD
:100DA0008DF809600DF10A02022102A8FFF792FEF8
:100DB00007A802AB042202A900900C20FFF78FFDC8
:100DC000044644B90798042805D19DF8080000F0AE
:100DD0000F000A2800D00224204608B0BDE8F081A8
:100DE00070B588B005460E46C2208DF808008DF813
:100DF00009500DF10A02022102A8FFF76BFE07A8B5
:100E000002AB042202A900900C20FFF768FD044603
:100E100044B90798042805D19DF8080000F00F0098
:100E20000A2800D00224CCB900208DF808008DF8E3
:100E300009008DF80A008DF80B0003AA042102A80E
:100E4000FFF748FE07A802AB062202A900900C207B
:100E5000FFF745FD0446022C00D0002414B1022007
:100E600008B070BDB0208DF808008DF809600DF154
:100E70000A02022102A8FFF72DFE07A802AB0422F6
:100E800002A900900C20FFF72AFD044644B90798F8
:100E9000042805D19DF8080000F00F000A2800D0B2
:100EA00002242046DCE700B587B050208DF804000E
:100EB00000208DF805000DF10602022101A8FFF7C0
:100EC00009FE06A801AB042201A900900C20FFF73F
:100ED00006FD002007B000BD10B54FF400613D488D
:100EE00000F079FF0A2000F0D6FB4FF4006139488A
:100EF00000F073FF3C2000F0F2FB4FF40061354836
:100F000000F069FF4FF4FA7000F0C5FB0F210120DB
:100F1000FFF78AFC022000F0E2FB3D211120FFF7E1
:100F200083FC1E212D20FFF77FFC00212C20FFF7E2
:100F30007BFC8D212A20FFF777FC3E212B20FFF739
:100F400073FC40211520FFF76FFC80213320FFF751
:100F5000B8FC40211520FFF767FC002010BD10B53C
:100F60001420FFF77EFC044604F0030018B90321A7
:100F70001420FFF798FC10BD10B503211420FFF7D3
:100F8000A0FC10BD10B5044608210846FFF799FCE7
:100F90003D211120FFF748FC86211720FFF744FC74
:100FA0007F212620FFF740FC1E212D20FFF73CFC6F
:100FB00000212C20FFF738FC8D212A20FFF734FC7C
:100FC0003E212B20FFF730FC052000F088FBFFF7C7
:100FD000C6FF10BD0008014010B504469248844287
:100FE00005D1012141F2040001F004F907E00121DB
:100FF000082001F0FFF80121880301F008F910BD75
:1010000038B50446884884421AD1E020ADF8000083
:1010100003208DF8020018208DF8030069468348EC
:1010200000F02CFE1020ADF800008DF8030069469A
:101030007E4800F023FE10217C4800F0CCFE1DE02D
:101040004FF46040ADF8000003208DF80200182036
:101050008DF803006946764800F010FE4FF480508A
:10106000ADF8000010208DF803006946704800F0CC
:1010700005FE4FF480516E4800F0ADFE38BD10B54E
:1010800086B004462046FFF7A7FF1020ADF81000F9
:101090000020ADF804004FF48270ADF80600002087
:1010A000ADF80800ADF80A00ADF80C00ADF80E0080
:1010B000ADF812000720ADF8140001A9204601F098
:1010C00027FB2046FFF79CFF0121204601F00AFC88
:1010D0000121204601F0C1FB06B010BD02460B46BF
:1010E000002100BF108900F002000028FAD0481C3F
:1010F000C1B2C82902DD4FF0FF3070479381002153
:1011000000BF108900F001000028FAD0481CC1B2CD
:10111000C82902DD4FF0FF30EFE790890020ECE7AF
:1011200002460B46002100BF108900F00200002893
:10113000FAD0481CC1B2C82902DD4FF0FF30704719
:10114000FF209081002100BF108900F001000028DD
:10115000FAD0481CC1B2C82902DD4FF0FF30EEE7DB
:10116000908918800020EAE730B503460C4600213C
:1011700024E000BF188900F002000028FAD0481CC3
:10118000C1B244F62060814202DD4FF0FF3030BD35
:1011900014F8010B9881002100BF188900F00100AC
:1011A0000028FAD018891881481CC1B244F6206082
:1011B000814202DD4FF0FF30E9E798891000A2F18B
:1011C0000102D6D100BFE2E730B503460C4600214C
:1011D00023E0FF20988108E0481CC1B244F620605B
:1011E000814202DD4FF0FF3030BD188900F002006F
:1011F0000028F1D0002108E0481CC1B244F620606C
:10120000814202DD4FF0FF30EEE7188900F0010067
:101210000028F1D0988904F8010B1000A2F1010216
:10122000D7D100BFE0E700000030014000080140D6
:10123000000C0140002001E0411CC8B20A28FBDB81
:10124000704710B580209749086040200860FFF77C
:10125000F1FF80209349091D0860FFF7EBFF402054
:101260009049091D0860FFF7E5FF10BD10B580200B
:101270008C49091D08604020091F0860FFF7DAFF4C
:1012800080208849086010BD70B50446002520E024
:1012900004F0800018B180208249086003E08020BB
:1012A0008049091D0860FFF7C5FF40207D4908609F
:1012B000FFF7C0FF40207B49091D0860072D02D1C0
:1012C0008020091F08606006040EFFF7B3FF681C4A
:1012D000C5B2082DDCDB70BD70B50024002516E01A
:1012E0006006040E40206F490860FFF7A3FF6D48B9
:1012F0000838006800F0800008B1601CC4B24020CB
:101300006849091D0860FFF795FF681CC5B2082DE4
:10131000E6DB204670BD10B5802062490860FFF70B
:1013200089FF40205F490860FFF784FF5D48083867
:10133000006800F0800008B1012400E00024402093
:101340005849091D0860FFF775FF204610BD10B50C
:1013500080205449091D0860FFF76CFF4020514967
:101360000860FFF767FF40204E49091D0860FFF73E
:1013700061FF80204B49086010BD10B580204949AD
:101380000860FFF757FF402046490860FFF752FF0B
:1013900040204449091D0860FFF74CFF10BD08B507
:1013A0000121082000F026FFC020ADF80000032036
:1013B0008DF8020014208DF8030069463948103872
:1013C00000F05CFCFFF752FF08BD70B50446FFF764
:1013D00038FF2046FFF758FFFFF79DFF0546FFF750
:1013E00045FF284670BD10B50446FFF72AFF46208A
:1013F000FFF74AFFFFF78FFF012800D110BD2046FD
:10140000FFF742FFFFF787FF012801D10220F5E730
:10141000FFF72CFF0020F1E710B50024FFF711FFC4
:101420004720FFF731FFFFF776FF012801D10020A9
:1014300010BDFFF751FF0446FFF789FFFFF74CFF90
:1014400000EB042084B2FFF798FFFFF70FFF204660
:10145000EEE710B50120FFF7C6FF10BD10B5002064
:10146000FFF7C1FF10BD10B50720FFF7BCFF10BD8F
:1014700010B5FFF794FFFFF7ECFF1020FFF7B3FF65
:1014800010BD70B5FFF7C8FF064606F08BF805469D
:10149000054905F0C5FF04464FF07E5106F096F869
:1014A00070BD0000100C0140CDCC8C3F10B56A48D7
:1014B000006820F00F00684908600846006840F0A6
:1014C00003000860002065490860142000F007F957
:1014D00001206349C1F8A0011E2000F0DCF810BD16
:1014E00010B500245C48006820F00F005A490860DD
:1014F0000846006840F00800086004E0601CC4B2C0
:10150000012000F0C8F855488038006808B1642C04
:10151000F4DB642C01DB012010BD002404E0601C1E
:10152000C4B2012000F0B7F84C488038006808B910
:10153000642CF4DB642C01DB0120EDE70020EBE7F9
:1015400010B5002404E0601CC4B2012000F0A3F830
:1015500042488038006808B1642CF4DB002404E0C1
:10156000601CC4B2012000F096F83C488038006846
:1015700008B9642CF4DB282000F08DF83748803857
:10158000006808B1012010BD0020FCE770B5002400
:10159000002506E06006040EFFF7D2FF0443681C36
:1015A000C5B2082DF6DB204670BD2DE9FC4105468D
:1015B0000E4617469846FFF779FFFFF791FF30BBBD
:1015C000002405E0FFF7E2FF0DF80400601CC4B240
:1015D000052CF7DB9DF800009DF8011008449DF8EC
:1015E000021008449DF8031008449DF80410884236
:1015F00010D19DF8000028709DF8010030709DF812
:10160000020038709DF8030088F8000002E0012015
:10161000BDE8FC810020FBE708B50121042000F0B3
:10162000E9FD4FF48070ADF8000010208DF8030044
:1016300003208DF8020069460748001F00F01EFBDA
:101640004FF480710448001F00F0C5FBFFF72EFF28
:10165000FFF746FF08BD000004080140A001214239
:101660000000214210B56FF0040000F088FA2E4807
:1016700000682E49B0FBF1F02D490870084600784B
:1016800000EB4001C1EBC0104FF6FF7101EAC00052
:101690002849088010BD0146254A12784A434FF078
:1016A000E0235A6100229A611A46126942F001024F
:1016B0001A6100BF4FF0E022106900F001021AB178
:1016C00000F48032002AF5D04FF0E022126922F0B7
:1016D00001024FF0E0231A6100229A61704701462F
:1016E000144A12884A434FF0E0235A6100229A615B
:1016F0001A46126942F001021A6100BF4FF0E0225F
:10170000106900F001021AB100F48032002AF5D00D
:101710004FF0E022126922F001024FF0E0231A613B
:1017200000229A61704700001000002000127A0029
:101730002400002026000020014600BF704701461B
:1017400000BF704700BFB54A128802F04002002A6D
:10175000F9D0C2B2B14B1B1D1A80704710B586B0CC
:101760000446012144F2040000F044FD4FF40070EF
:10177000ADF8140003208DF8160018208DF817001E
:1017800005A9A74800F07AFA4FF48060ADF814007C
:1017900004208DF8170005A9A14800F06FFA252054
:1017A0008DF8000003208DF801008DF80200012063
:1017B0008DF80300684600F098F901940020ADF818
:1017C0000800ADF80A00ADF80C00ADF810000C20D0
:1017D000ADF80E0001A9914800F0B3FD012240F2DE
:1017E00025518E4800F045FE01218C4800F035FE61
:1017F00006B010BD10B540F22551884800F01EFF1C
:1018000018B12021854800F010FF10BD10B586B03A
:1018100004460121042000F0EDFC0121480400F001
:10182000F6FC18208DF817000420ADF814000320F2
:101830008DF8160005A97A4800F020FA04208DF8EA
:1018400017000820ADF8140003208DF8160005A934
:10185000734800F013FA01940020ADF810000C203A
:10186000ADF80E000020ADF80C00ADF80A00ADF8A0
:10187000080001A96B4800F064FD0121694800F0EF
:10188000ECFD012240F22551664800F0F2FD2620D1
:101890008DF8000001208DF803008DF801008DF80F
:1018A0000200684600F021F906B010BD10B586B000
:1018B00004460121082000F09DFC0121880400F06D
:1018C000A6FC18208DF817004FF48060ADF81400C6
:1018D00003208DF8160005A9534800F0CFF9042025
:1018E0008DF817004002ADF8140003208DF81600A3
:1018F00005A94D4800F0C2F901940020ADF8100090
:101900000C20ADF80E000020ADF80C00ADF80A0078
:10191000ADF8080001A9454800F013FD0121434836
:1019200000F09BFD012240F22551404800F0A1FD4E
:1019300027208DF8000001208DF8030000208DF88D
:1019400001008DF80200684600F0CFF806B010BD27
:1019500010B540F22551354800F070FE18B1202135
:10196000324800F062FE10BD70B504460D462946AF
:10197000204600F0DFFD00BF8021204600F048FE39
:101980000028F9D070BD2DE9F04107460C461546F8
:1019900000260DE014F8011B384600F0CBFD00BF17
:1019A0004021384600F034FE0028F9D0701C86B281
:1019B000AE42EFDBBDE8F0810FB430B5CBB00546E9
:1019C00001AC50A800904FF4947101A8009B4F9A6D
:1019D00003F084FC002000900BE014F8011B284663
:1019E00000F0A8FD00BF4021284600F011FE0028AD
:1019F000F9D020780028F0D14BB030BC5DF814FB52
:101A000010B5044600BF2021044800F001FE002864
:101A1000F9D0024800F092FD10BD000000380140EE
:101A20000008014000440040000C01400048004014
:101A30007FB505460C460121042000F0E8FBADF817
:101A40000850ADF804400020ADF80A00ADF80600DB
:101A500001A9124801F090F8012211460F4801F047
:101A600002FC1E208DF8000001208DF801008DF889
:101A700002008DF80300684600F037F8012107489E
:101A800001F0D6FB7FBD10B50121044801F099FE9D
:101A900018B10121014801F091FE10BD000800407D
:101AA0000948804709480047FEE7FEE7FEE7FEE7F2
:101AB000FEE7FEE7FEE7FEE7FEE7FEE7044805492E
:101AC000054A064B70470000170600083101000860
:101AD00028010020280700202803002028030020D8
:101AE00031490143314A1160704770B5002100232C
:101AF0000F22C47804B32D4C246804F4E064C4F5C8
:101B0000E064210AC1F10403CA40447804FA03F1F5
:101B10008478144021430901254C0678A1550478A6
:101B200004F01F050124AC4005786D11AD0005F1EE
:101B3000E025C5F8004109E0047804F01F05012400
:101B4000AC401C4D0678761145F8264070BD1A4A07
:101B50000A400243154B1B1F1A60704739B1134AE4
:101B6000121D12680243114B1B1D1A6006E00F4A3A
:101B7000121D126882430D4B1B1D1A60704704280A
:101B800008D14FF0E021096941F004014FF0E02253
:101B9000116107E04FF0E021096921F004014FF0E5
:101BA000E0221161704700000000FA050CED00E032
:101BB00000E400E080E100E080FFFF1F10B5044674
:101BC000CC48844208D10121042000F02DFB0021E3
:101BD000042000F029FB46E0C748844208D10121D7
:101BE000082000F021FB0021082000F01DFB3AE056
:101BF000C248844208D10121102000F015FB0021C9
:101C0000102000F011FB2EE0BD48844208D10121D4
:101C1000202000F009FB0021202000F005FB22E03D
:101C2000B848844208D10121402000F0FDFA00218B
:101C3000402000F0F9FA16E0B348844208D10121AF
:101C4000802000F0F1FA0021802000F0EDFA0AE097
:101C5000AE48844207D10121801500F0E5FA002149
:101C6000A01500F0E1FA10BD10B50121084600F002
:101C7000DBFA0021012000F0D7FA10BD2DE9F04178
:101C8000024600250026002000230024002791F8AA
:101C900003C00CF00F0591F803C00CF0100CBCF160
:101CA000000F03D091F802C04CEA050591F800C07E
:101CB000BCF1000F31D0146800202BE04FF0010C74
:101CC0000CFA00F3B1F800C00CEA03069E4220D1E2
:101CD00083004FF00F0C0CFA03F7BC4305FA03FC2A
:101CE0004CEA040491F803C0BCF1280F06D14FF070
:101CF000010C0CFA00FCC2F814C00AE091F803C011
:101D0000BCF1480F05D14FF0010C0CFA00FCC2F8F1
:101D100010C0401C0828D1D31460B1F800C0BCF139
:101D2000FF0F34DD546800202EE000F1080C4FF066
:101D3000010808FA0CF3B1F800C00CEA03069E4251
:101D400021D183004FF00F0C0CFA03F7BC4305FAC6
:101D500003FC4CEA040491F803C0BCF1280F05D140
:101D600000F1080C08FA0CF8C2F8148091F803C0CE
:101D7000BCF1480F07D100F1080C4FF0010808FA38
:101D80000CF8C2F81080401C0828CED35460BDE87F
:101D9000F0814FF6FF710180022181700421C17032
:101DA00070470246002093680B400BB1012000E011
:101DB000002070470146886880B2704702460020C4
:101DC000D3680B400BB1012000E0002070470146B2
:101DD000C86880B2704701617047416170470AB1BD
:101DE000016100E041617047C16070474FF480328B
:101DF0000A43826181618261826982697047024619
:101E00000020434B18684FF68073184040EA0210D8
:101E100008433F4B186070473E49C8617047F0B5B2
:101E20000A46002300240021002500F00046B6F1F8
:101E3000004F02D1364EF16901E0354E7168C0F3B2
:101E4000034583B200F44016B6F5401F08D121F0D7
:101E500070612F4E766826F070662D4F7E6012E01E
:101E600000F48016B6F5801F06D1032606FA05F4A5
:101E7000A14341F0706106E0460D360103FA06F613
:101E8000B14341F0706122B1460D360103FA06F606
:101E9000314300F00046B6F1004F02D11C4EF16113
:101EA00001E01B4E7160F0BD30B500228B071C0FA6
:101EB0000F2303FA04F2164B08338C1053F8243026
:101EC0009343134C08348D1044F8253023468C106E
:101ED00053F824308C07240F00FA04F423430C4CED
:101EE00008348D1044F8253030BD0A49DC310860D3
:101EF0007047000000080140000C01400010014044
:101F00000014014000180140001C01400020014065
:101F10000000014000002042DF48006840F001005E
:101F2000DD49086008464068DC490840DA494860F5
:101F300008460068DA490840D74908600846006842
:101F400020F4802008600846406820F4FE004860C5
:101F50004FF41F0088607047CF49096821F4803131
:101F6000CD4A11601146096821F480211160B0F555
:101F7000803F03D0B0F5802F0ED106E0C649096836
:101F800041F48031C44A116007E0C349096841F453
:101F9000A021C14A116000E000BF00BF704710B52A
:101FA00001460022002300204A11012A02D1BA4C26
:101FB000236806E0022A02D1B74C236A01E0B64C3E
:101FC000636A01F01F02012494401C400CB10120FF
:101FD00000E0002010BD38B500200090002400254E
:101FE00000BF3120FFF7DBFF05460098401C009042
:101FF0000098B0F5A06F01D0002DF2D03120FFF78E
:10200000CEFF08B1012400E00024204638BD01467F
:102010000020A14A106820F0F80040EAC1001060DA
:102020007047A04908607047024600209A4B5868E4
:1020300020F47C1042EA01031843974B5860704724
:1020400098490866704701460020934A506820F07E
:1020500003000843506070478F48406800F00C0050
:102060007047014600208C4A506820F0F000084379
:102070005060704701460020874A506820F4E060B5
:1020800008435060704701460020834A506820F49E
:10209000605040EAC1005060704729B17E4A527AD0
:1020A00002437D4B5A7204E07B4A527A82437A4B58
:1020B0005A7270477B49D83108607047014600204A
:1020C000754A506820F44040084350607047002132
:1020D000714A20321170704A82F82010012802D013
:1020E00004280AD104E001216B4A2032117005E076
:1020F0000521694A2032117000E000BF00BF70471F
:102100006949086070476449096A0143624A11627B
:102110007047654944390860704730B50021002296
:10212000002400235C4D6D6805F00C0121B10429E9
:1021300005D0082923D105E05C4D056022E05B4D08
:1021400005601FE0544D6D6805F47012524D6D68C6
:1021500005F48034022505EB92421CB9544D5543D9
:1021600005600BE04C4D6D6805F400351DB1504D18
:102170005543056002E04D4D5543056002E04B4D6F
:10218000056000BF00BF444D6D6805F0F00109090E
:10219000484D6B5C0568DD4045603F4D6D6805F45A
:1021A000E061090A434D6B5C4568DD4085603A4D4E
:1021B0006D6805F46051C90A3E4D6B5C4568DD40B1
:1021C000C560354D6D6805F44041890B3A4D6B5C37
:1021D000C568B5FBF3F5056130BD29B12E4A5269DA
:1021E00002432D4B5A6104E02B4A526982432A4B29
:1021F0005A61704729B1284A92690243264B9A6175
:1022000004E0254A92698243234B9A61704729B1C1
:10221000214AD2690243204BDA6104E01E4AD269A6
:1022200082431D4BDA61704729B11B4AD2680243D1
:10223000194BDA6004E0184AD2688243164BDA6020
:10224000704729B1144A12690243134B1A6104E022
:10225000114A12698243104B1A6170471249403982
:10226000086070470F49C86470470B49C8717047D0
:102270000948406A40F0807007494862704701464B
:102280000020054A92680A400AB1012000E00020BF
:102290007047014988727047001002400000FFF843
:1022A000FFFFF6FE000042428004424200127A0024
:1022B00000093D002E0000203E00002010B504461D
:1022C000FB48844209D101218803FFF7ADFF0021BB
:1022D0004FF48040FFF7A8FF32E0F648844209D16E
:1022E00001214804FFF7ADFF00214FF40030FFF754
:1022F000A8FF25E0F048844209D101218804FFF7B6
:10230000A0FF00214FF48020FFF79BFF18E0EB486F
:10231000844209D10121C804FFF793FF00214FF443
:102320000020FFF78EFF0BE0E548844208D1012131
:102330000805FFF786FF00214FF48010FFF781FFAB
:1023400010BD2DE9F04786B005460E460024A24692
:1023500000BFA1460027B08900B100BF2F462C8ADC
:102360004CF6FF700440F08804432C82AC894EF692
:10237000F3100440B088318908437189084304434D
:10238000AC81AC8A4FF6FF400440B0890443AC8274
:1023900001A8FFF7C2FEC648874202D1DDF810A0AF
:1023A00001E0DDF80CA0A88900F4004040B10AEB80
:1023B000CA0000EB0A1031684900B0FBF1F807E0F1
:1023C0000AEBCA0000EB0A1031688900B0FBF1F893
:1023D0006420B8FBF0F004012009642101FB10899E
:1023E000A88900F4004040B1322000EBC900B0FBE6
:1023F000F1F000F00700044308E0322000EB091080
:102400006421B0FBF1F000F00F0004432C8106B012
:10241000BDE8F0874FF41651016000218180C18032
:1024200001810C21418100218181704710B5024654
:102430000020108A4FF2FF0318400B884C8823437A
:102440008C882343CC8823431843108210BD00217D
:10245000018041808180C180704721B1828942F42E
:102460000052828104E082894DF6FF731A40828116
:102470007047F0B50346002400260025002040F6F2
:102480006A17B94200D100BF1846C1F3421401F0E7
:102490001F06012707FA06F5012C01D10C3004E0D4
:1024A000022C01D1103000E014301AB107682F431C
:1024B000076002E00768AF430760F0BD1AB1838A86
:1024C0000B43838202E0838A8B4383827047028AB4
:1024D0004FF6F0731A400282028A0A430282704762
:1024E00082894FF2FF731A40828182890A43828176
:1024F000704721B1828942F00202828104E0828920
:102500004FF6FD731A4082817047028A4FF6DF73DF
:102510001A400282028A0A430282704721B1028A6B
:1025200042F48042028204E0028A4BF6FF731A40B2
:1025300002827047C1F30802828070470146888892
:10254000C0F308007047818941F001018181704723
:10255000028BD2B20283028B42EA012202837047CD
:10256000028B02F47F420283028B0A43028370478C
:1025700021B1828A42F02002828204E0828A4FF6F0
:10258000DF731A408282704721B1828A42F01002C2
:10259000828204E0828A4FF6EF731A40828270478B
:1025A00021B1828A42F00802828204E0828A4FF6D8
:1025B000F7731A408282704721B1828942F4004247
:1025C000828103E08289C2F30E028281704721B1C9
:1025D000828A42F40062828204E0828A4FF2FF73B0
:1025E0001A4082827047828A4FF6FB731A408282B9
:1025F000828A0A438282704721B1828A42F00202B3
:10260000828204E0828A4FF6FD731A40828270470C
:1026100002460020B1F5007F00D100BF13880B40B7
:102620000BB1012000E00020704701F40072B2F508
:10263000007F00D100BFCA430280704770B50246D8
:10264000002400230025002040F66A16B14200D184
:1026500000BFC1F3421501F01F03012606FA03F380
:10266000012D02D19689334006E0022D02D1168A4F
:10267000334001E0968A33400C12012606FA04F436
:102680001688344013B10CB1012000E0002070BD69
:1026900010B50022002340F66A14A14200D100BF09
:1026A0000A1201249440A3B2DC43048010BD000050
:1026B000003801400044004000480040004C004009
:1026C0000050004010B50446BE48844208D10121A4
:1026D0008014FFF7A9FD0021A014FFF7A5FD16E067
:1026E000B948844208D101210014FFF7AAFD002156
:1026F0002014FFF7A6FD0AE0B448844207D1012167
:10270000C013FFF79EFD0021E013FFF79AFD10BDF7
:1027100010B50022028802F441520B884C882343F2
:102720008C882343CC8823430C8923434C8923433F
:102730008C892343CC8923431A430280838B4FF235
:10274000FF74234083830B8A038210BD2DE9F04F71
:1027500085B005460C464FF0000902274FF00008EF
:102760004FF0010B0026B246A88B4FF24001084003
:10277000A88302202884B5F81C90A068022801D103
:1027800000BF38E0A08810B94FF0010B01E04FF016
:10279000020B8D48854200D100E000BF6846FFF77C
:1027A000BCFCDDF800A0E088B0F5007F0AD14FEA5C
:1027B0001A2000EB80004000A168B0FBF1F0401D42
:1027C00086B20BE04FEA4B10BAFBF0F000EB800052
:1027D0004000A168B0FBF1F0401D86B20A20B6FBB4
:1027E000F0F606F00108A6EB0800C0F34F074FF61D
:1027F000FF7000EA0828022F01DBFF2F02DD02270D
:102800004FF00008E08840EA080038432884A08898
:10281000A1890843618808432188084340F4006087
:1028200040EA0909A5F81C9005B0BDE8F08F002129
:10283000018041808180C180018141818181C1818C
:102840000721018270470021018041808180C18081
:102850000221816000218181704721B1028842F00C
:102860004002028004E002884FF6BF731A400280E3
:10287000704721B1828B42F48062828304E0828BB4
:102880004FF6FF331A408283704730B5002400238F
:102890000C110125A540ABB21AB185881D43858076
:1028A00002E085889D43858030BD1AB183880B4343
:1028B000838002E083888B438380704781817047E7
:1028C0000146888970474FF6FF62914204D0028822
:1028D00042F48072028004E002884FF6FF631A40DF
:1028E0000280704721B1828842F00402828004E0B5
:1028F00082884FF6FB731A408280704702884FF23D
:10290000FF731A40028002880A43028070470188E0
:1029100041F480510180704721B1028842F4005295
:10292000028004E002884DF6FF731A40028070476F
:1029300002460020012901D0108B00E0908A7047E8
:102940000146088A7047B1F5804F04D1028842F4ED
:102950008042028004E002884BF6FF731A40028036
:1029600070470246002013890B400BB1012000E0A4
:1029700000207047CA4302817047F0B5024600202C
:1029800000240023002501F00F070126BE40B4B249
:102990000B1101269E40B3B2968806EA03051689FC
:1029A000264016B10DB1012000E00020F0BD10B5A9
:1029B000002201F00F040123A3409AB2D343038104
:1029C00010BD00000030014000380040003C0040D5
:1029D00010B50446FE48844208D10121C014FFF717
:1029E00023FC0021E014FFF71FFCC4E0B4F1804F8A
:1029F00008D101210846FFF724FC00210120FFF740
:102A000020FCB8E0F348844208D101210220FFF7FE
:102A100018FC00210220FFF714FCACE0EE488442D1
:102A200008D101210420FFF70CFC00210420FFF74E
:102A300008FCA0E0E948844208D101210820FFF702
:102A400000FC00210820FFF7FCFB94E0E4488442EE
:102A500008D101211020FFF7F4FB00211020FFF71F
:102A6000F0FB88E0DF48844208D101212020FFF7F5
:102A7000E8FB00212020FFF7E4FB7CE0DA488442F9
:102A800008D101214014FFF7CFFB00216014FFF7AC
:102A9000CBFB70E0D548844209D10121C804FFF77F
:102AA000C3FB00214FF40020FFF7BEFB63E0D048DA
:102AB000844209D101210805FFF7B6FB00214FF43C
:102AC0008010FFF7B1FB56E0CA48844209D10121CA
:102AD0004805FFF7A9FB00214FF40010FFF7A4FB06
:102AE00049E0C548844208D101214020FFF7A9FBF5
:102AF00000214020FFF7A5FB3DE0C048844208D1FB
:102B000001218020FFF79DFB00218020FFF799FB2A
:102B100031E0BB48844208D101218015FFF791FBC9
:102B20000021A015FFF78DFB25E0B648844209D1AE
:102B300001210804FFF778FB00214FF48030FFF7F4
:102B400073FB18E0B048844209D101214804FFF723
:102B50006BFB00214FF40030FFF766FB0BE0AB4846
:102B6000844208D101218804FFF75EFB00214FF465
:102B70008020FFF759FB10BD00220288944B984239
:102B80000ED0994B98420BD0B0F1804F08D0914BAA
:102B9000984205D0904B984202D0904B984204D175
:102BA0004FF68F731A404B881A438D4B984207D0CB
:102BB0008C4B984204D04FF6FF431A40CB881A43FF
:102BC00002808B8883850B880385814B98420BD0CC
:102BD000854B984208D08B4B984205D08A4B98423F
:102BE00002D08A4B984201D10B7A0386012383825B
:102BF000704770B5002400220023058C4FF6FE7646
:102C000035400584028C8388048B4FF68F752C40E9
:102C1000B51E2C400D882C43751E2A400D892A4371
:102C20004D882A436A4DA8420BD06F4DA84208D068
:102C3000744DA84205D0744DA84202D0734DA842ED
:102C400013D14FF6F7752A404D892A434FF6FB758D
:102C50002A408D882A434FF6FF652B404FF6FF55DB
:102C60002B408D892B43CD892B4383800483CD88D2
:102C70008586028470BD70B5002400220023058C77
:102C80004FF6EF7635400584028C8388048B48F636
:102C9000FF752C404FF6FF452C400D884FF6FF7610
:102CA00006EA05252C434FF6DF752A400D8906EA12
:102CB00005152A434D8806EA05152A43444DA842C6
:102CC00002D0494DA8421DD14FF67F752A404D894B
:102CD0004FF6FF7606EA05152A434FF6BF752A40E0
:102CE0008D8806EA05152A434FF6FF352B404FF233
:102CF000FF752B408D8906EA85052B43CD8906EAB1
:102D000085052B4383800483CD880587028470BDAD
:102D100070B5002400220023058C4FF6FF66354075
:102D20000584028C8388848B4FF68F752C404FF678
:102D3000FC752C400D882C434FF6FF552A400D8919
:102D40004FF6FF7606EA05252A434D8806EA052553
:102D50002A431F4DA84202D0234DA8421DD14FF255
:102D6000FF752A404D894FF6FF7606EA05252A436E
:102D70004FF6FF352A408D8806EA05252A434EF690
:102D8000FF752B404DF6FF752B408D8906EA051522
:102D90002B43CD8906EA05152B4383808483CD8898
:102DA0008587028470BD70B5002200230024058C45
:102DB0004EF6FF7635400584038C8488828B48F676
:102DC000FF752A404FF6FF452A400D8820E000009D
:102DD000002C01400004004000080040000C0040AE
:102DE000001000400014004000340140004C01403D
:102DF000005001400054014000180040001C0040F9
:102E000000200040004001400044014000480140D3
:102E10004FF6FF7606EA05252A434DF6FF752B404F
:102E20000D8906EA05352B434D8806EA05352B4307
:102E3000FA4DA84202D0FA4DA84208D14BF6FF75D0
:102E40002C408D894FF6FF7606EA85152C43848049
:102E50008283CD88A0F84050038470BD828B4FF2EE
:102E6000FF331A408283828B4FF6FF7303EA0123FC
:102E70001A4382837047F0B50C46154600220021A4
:102E80000026078C4EF6FF7C07EA0C070784828B2E
:102E9000018C4FF6FF7707EA043640F6FF473A40C9
:102EA0004FF6FF7707EA05273A434FF6FF7707EA21
:102EB00003373A43D94FB8420ED0D94FB8420BD05E
:102EC000B0F1804F08D0D74FB84205D0D64FB842A6
:102ED00002D0D64FB84206D14DF6FF77394046F4BE
:102EE0008057394305E047F6FF57394044F480578F
:102EF000394382830184F0BD828B4FF6F3731A400D
:102F00008283828B0A4382837047F0B50C46154654
:102F1000002200210026078C4FF6FF6C07EA0C0701
:102F20000784828B018C4FF6FF7707EA04264FF661
:102F30000C773A404FF6FF7707EA03172F433A43DF
:102F4000B64FB8420ED0B64FB8420BD0B0F1804F5A
:102F500008D0B44FB84205D0B34FB84202D0B34FF7
:102F6000B84206D14FF6FF57394046F480773943CF
:102F700005E04FF2FF57394044F4807739438283AC
:102F80000184F0BD028B4FF2FF331A400283028BA3
:102F90004FF6FF7303EA01231A4302837047F0B52B
:102FA0000C461546002200210026078C4FF6EF7CC8
:102FB00007EA0C070784028B018C4FF6FF7707EABC
:102FC000041640F6FF473A404FF6FF7707EA03370B
:102FD0003A434FF6FF7707EA05273A438F4FB84247
:102FE0000ED08F4FB8420BD0B0F1804F08D08D4F2C
:102FF000B84205D08C4FB84202D08C4FB84206D1AF
:103000004FF6DF77394046F01007394305E04FF6B9
:103010005F77394044F01007394302830184F0BDE3
:10302000028B4FF6F3731A400283028B0A4302832A
:103030007047F0B50C46154600220021068C4FF66D
:10304000FE773E400684028B018C4FF60C763240B0
:103050007E1C06EA03162E433243704EB0420ED059
:103060006F4EB0420BD0B0F1804F08D06D4EB042E1
:1030700005D06D4EB04202D06C4EB04206D14FF634
:10308000FD76314044F00106314305E04FF6F57618
:10309000314044F00106314302830184F0BD70B534
:1030A00005460C465D4885420ED05D4885420BD0F2
:1030B000B5F1804F08D05B48854205D05A4885421B
:1030C00002D05A48854200D100E000BF208850B9A4
:1030D0002389A28861882846FFF7ABFFE18828464C
:1030E000FFF79EFF25E0208804280AD12389A288C3
:1030F00061882846FFF753FFE1882846FFF742FF23
:1031000017E0208808280AD12389A28861882846E8
:10311000FFF7FBFEE1882846FFF7EEFE09E0238972
:10312000A28861882846FFF7A6FEE1882846FFF7B7
:1031300095FE70BD2DE9F04105460C46002601279D
:10314000608808B9022600E00026A088012801D185
:10315000022700E001272088A0B92389A28861887E
:103160002846FFF766FFE1882846FFF759FF2389C5
:103170003A4631462846FFF712FFE1882846FFF716
:1031800001FF13E02389A28861882846FFF707FF23
:10319000E1882846FFF7F6FE23893A46314628465D
:1031A000FFF747FFE1882846FFF73AFFBDE8F081C7
:1031B0000A884B881A438B881A43CB881A430B8999
:1031C0001A434B891A438B891A43A0F8442070474D
:1031D0004FF6FF71818000210180C1804180017222
:1031E00070470021018041808180C180018141813F
:1031F0008181C1817047002101804180012181804E
:103200000021C180018170470021018041808180BF
:10321000C18001814181818170470000002C014003
:10322000003401400004004000080040000C004051
:1032300021B1028842F00102028004E002884FF6C8
:10324000FE731A400280704731B1B0F8442042F456
:103250000042A0F8442005E0B0F84420C2F30E027A
:10326000A0F8442070471AB183890B43838102E0A0
:1032700083898B43838170478182704741EA0203CF
:10328000A0F8483070471AB183890B43838102E06C
:1032900083898B438381704701894FF6F87211400F
:1032A000018170470A46002101894FF68F7319404A
:1032B00011430181704730B504460D46294620462A
:1032C000FFF7F0FF208940F00700208130BD2DE995
:1032D000F04104460D4616461F46602D06D13B467A
:1032E000012231462046FFF75AFE05E03B46012207
:1032F00031462046FFF79DFE29462046FFF7D2FFC4
:10330000208940F007002081BDE8F08130B50C46EF
:1033100000210189C9B24FF6FF7505EA032515435F
:1033200025432943018130BD2DE9F04105460E4674
:1033300017469846002443463A4631462846FFF74A
:10334000E5FF2C894FF6F870044044F007044FF66F
:103350008F70044044F070042C81BDE8F081F0B51A
:1033600004460D4616461F463B4632462946204631
:10337000FFF7CCFF208940F480402081F0BD01851B
:10338000828270470A46002101884FF68F731940E8
:10339000114301807047F0B50C4615461E460021CA
:1033A000002200230189028B038C4FF6F877394005
:1033B00021434FF6FC473A4040F201173A434FF69B
:1033C000DD773B404FF6FF7707EA06172F433B4375
:1033D000018102830384F0BD0A460021018B4FF670
:1033E0008F7319401143018370470A460021018BF6
:1033F00048F6FF7319404FF6FF7303EA022319439F
:10340000018370470A460021818B4FF68F73194064
:103410001143818370470A460021818B48F6FF7370
:1034200019404FF6FF7303EA022319438183704763
:1034300021B1028842F08002028004E002884FF647
:103440007F731A400280704721B1828842F00402E3
:10345000828004E082884FF6FB731A4082807047B6
:1034600021B1828842F00802828004E082884FF60F
:10347000F7731A408280704721B1828842F00102BE
:10348000828004E082884FF6FE731A408280704783
:103490000A460021018B4FF6F7731940114301834F
:1034A00070470A460021018B4FF2FF7319404FF617
:1034B000FF7303EA02231943018370470A46002180
:1034C000818B4FF6F77319401143818370470A4689
:1034D0000021818B4FF2FF7319404FF6FF7303EA0F
:1034E00002231943818370470A460021018B4FF65E
:1034F000FB7319401143018370470A460021018B79
:103500004FF6FF3319404FF6FF7303EA02231943C6
:10351000018370470A460021818B4FF6FB731940E7
:103520001143818370470A460021818B4FF6FF3398
:1035300019404FF6FF7303EA022319438183704752
:103540000A460021018B4FF67F7319401143018316
:1035500070470A460021018BC1F30E014FF6FF733D
:1035600003EA02231943018370470A460021818B35
:103570004FF67F7319401143818370470A4600213B
:10358000818BC1F30E014FF6FF7303EA0223194347
:10359000818370470A460021018C4FF6FD73194064
:1035A0001143018470470A460021018C4FF6F773DE
:1035B00019401143018470470A460021018C4FF6DF
:1035C000DF7319404FF6FF7303EA021319430184B6
:1035D00070470A460021018C4FF67F7319404FF661
:1035E000FF7303EA02131943018470470A4600215E
:1035F000018C4FF6FF5319404FF6FF7303EA022385
:103600001943018470470A460021018C4FF2FF7371
:1036100019404FF6FF7303EA0223194301847047F0
:103620000A460021018C4DF6FF7319404FF6FF73D7
:1036300003EA023319430184704730B500230124A3
:103640008C40A3B2048C9C430484048C02FA01F5E0
:10365000ADB22C43048430BD30B5002304248C402B
:10366000A3B2048C9C430484048C02FA01F5ADB22D
:103670002C43048430BD70B5034600200024184656
:10368000183001258D40ACB21D8CA5431D8409B1B5
:10369000082909D100EB6100056825F07005056077
:1036A0000568154305600EE00D1FC5F34E0528445F
:1036B000056825F4E045056005684FF6FF7606EAE3
:1036C00002263543056070BD21B1028842F0020236
:1036D000028004E002884FF6FD731A4002807047B2
:1036E00021B1028842F00402028004E002884FF611
:1036F000FB731A400280704721B1828842F0800239
:10370000828004E082884FF67F731A40828070477F
:1037100002884FF6F7731A40028002880A4302803B
:10372000704782884FF68F731A40828082880A43DE
:103730008280704702894FF6F8731A40028102892D
:103740000A430281704702894FF67F731A40028153
:1037500002890A43028170478184704781857047DE
:10376000818670470187704781877047A0F84010B5
:10377000704702884FF6FF431A40028002880A43CE
:10378000028070470146888E70470146088F704757
:103790000146888F70470146B1F8400070470146E6
:1037A000888C70470146088D704702460020138AB6
:1037B0000B400BB1012000E000207047CA43028299
:1037C000704730B50246002000230024158A05EA20
:1037D0000103958905EA010413B10CB1012000E051
:1037E000002030BDCA4302827047000030B58BB064
:1037F00000200790089009900A900125DDA0E0A321
:10380000E2A2E4A10090EF48FEF7D6F807A8002155
:1038100002910391CDE9041000912B02D5A20191F0
:10382000D7A1DAA000F07BFC002847D1089A91B21A
:10383000079801F001FB4FF4967001F014FB044669
:1038400014B9E1A001F064FD002C33D0204600F053
:1038500031FC02282ED1204600F0C6FD062823D2D6
:10386000DFE800F003090E13181DDBA1D548FEF7B1
:10387000A3F800251DE0DDA1D248FEF79DF818E071
:10388000E1A1D048FEF798F813E0E8A1CD48FEF793
:1038900093F80EE0EDA1CB48FEF78EF809E0F4A115
:1038A000C848FEF789F804E0FCA1C648FEF784F892
:1038B00000BF00BF07A800F0B5FB03E0FEA1C148B0
:1038C000FEF77AF828460BB030BD7FB50020009097
:1038D0000190029003900125684601F051FAB0B9B9
:1038E000019A91B2009801F0A7FAFA2001F0BBFA10
:1038F000044634B1204600F0DDFB0D2804D100253C
:1039000002E0284604B070BD684600F08BFB2846F4
:10391000F8E72DE9F14F90B04021684601F0A5FF8E
:10392000EEA1109801F0EBFE4021684601F09DFFEA
:10393000EF48007803F04CFB8246EE4AEE4B03F072
:103940005BFB06460F46ED48007803F041FB8046DE
:1039500032463B4603F094FA044622460B46E8A161
:10396000684601F0E1FC6946109801F00BFF402128
:10397000684601F07AFFF048007803F029FB06461C
:10398000DC4ADD4B03F038FB80468946EB48007883
:1039900003F01EFB044642464B4603F071FA824692
:1039A00052460B46E6A1684601F0BEFC69461098F7
:1039B00001F0E8FE4021684601F057FFED4800683D
:1039C00003F002FD044622460B46EBA1684601F0D7
:1039D000ABFC6946109801F0D5FEF3A1109801F0F8
:1039E000D1FE109801F0AFFEC0B211B0BDE8F08F6B
:1039F00030B5C5B0002041904290439044900024DF
:103A00000025EAA16F48FDF7D7FF4FF4807101A8A8
:103A100001F02BFF01A8FFF77CFF04462146EBA035
:103A200001F076FC002C26D041A80123002221467B
:103A3000009050A000F0BEFDC8B908E001A8415DAB
:103A4000429A501C429041988154681C05B2A5428C
:103A5000F4DB429A91B2419801F0EEF9DFA15948A6
:103A6000429AFDF7A9FF41A800F0DCFA03E0DFA1CC
:103A70005448FDF7A1FF45B030BD2DE9F0418CB0B1
:103A800080460020089009900A900B9007900690BD
:103A900005900026002700240025404600F00AFB80
:103AA0000646042E25D00F2E2CD105AB07AA06A959
:103AB000404600F00BFE0746D7B9BDF81400009051
:103AC000D2A14048DDE90623FDF776FF08AADDE92B
:103AD000060100F041FE58B9D5A13A48FDF76CFF48
:103AE000099A91B2089801F0A7F908A800F09AFA8B
:103AF0000BE0404601F099F818B9D3A13148FDF721
:103B00005BFF02E04FF0FF3700BF00BF01F050F94C
:103B1000781C10B90CB0BDE8F0814421079801F081
:103B2000C0FD0446B4B1781CA0B1641C05E014F8D3
:103B3000012B28466D1C02A90A542078302802DB8C
:103B400020783928F3DD002002A9485502A801F0A9
:103B50009BFD05462946C4A001F0DAFB292D05D0BE
:103B600005DC152D04D004DC0A2D85E1C4E190E1CB
:103B7000AAE187E13737303039393832390000006F
:103B80004E42686F6D653636360000003435343489
:103B9000363900004F6E654E65745F4465764C693A
:103BA0006E6B0D0A50524F49443A2025732C09413F
:103BB0005549463A2025732C0944455649443A252F
:103BC000730D0A000038014064617461507472CA58
:103BD000C7BFD5B5C40D0A00546970733A09C1ACAA
:103BE000BDD3B3C9B9A60D0A000000005741524E1B
:103BF0003A09C1ACBDD3CAA7B0DCA3BAD0ADD2E9F3
:103C0000B4EDCEF30D0A00005741524E3A09C1AC53
:103C1000BDD3CAA7B0DCA3BAB7C7B7A8B5C4636C95
:103C200069656E7469640D0A000000005741524EC8
:103C30003A09C1ACBDD3CAA7B0DCA3BAB7FECEF176
:103C4000C6F7CAA7B0DC0D0A000000005741524E6B
:103C50003A09C1ACBDD3CAA7B0DCA3BAD3C3BBA7D2
:103C6000C3FBBBF2C3DCC2EBB4EDCEF30D0A000024
:103C70005741524E3A09C1ACBDD3CAA7B0DCA3BA72
:103C8000B7C7B7A8C1B4BDD328B1C8C8E7746F6BB4
:103C9000656EB7C7B7A8290D0A0000004552523A11
:103CA00009C1ACBDD3CAA7B0DCA3BACEB4D6AAB4FE
:103CB000EDCEF30D0A0000005741524E3A094D5126
:103CC00054545F5061636B6574436F6E6E656374CB
:103CD000204661696C65640D0A0000007B22646106
:103CE000746173747265616D73223A5B0000000049
:103CF000050000209A9999999999B93F04000020EC
:103D00007B226964223A2274656D706572617475F4
:103D10007265222C2264617461706F696E74732203
:103D20003A5B7B2276616C7565223A25302E3166CE
:103D30007D5D7D2C000000000700002006000020B3
:103D40007B226964223A2268756D696469747922FC
:103D50002C2264617461706F696E7473223A5B7BAC
:103D60002276616C7565223A25302E31667D5D7D47
:103D70002C000000080000207B226964223A226C9B
:103D800069676874222C2264617461706F696E7453
:103D900073223A5B7B2276616C7565223A25302E60
:103DA00032667D5D7D0000005D7D000054697073AA
:103DB0003A094F6E654E65745F53656E6444617475
:103DC000612D4D5154540D0A00000000626F64795A
:103DD0005F6C656E3A2564200D0A000053656E64C1
:103DE0002025642042797465730D0A005741524EB4
:103DF0003A094D5154545F4E657742756666657257
:103E0000204661696C65640D0A000000636D646999
:103E1000643A2025732C207265713A2025732C207A
:103E20007265715F6C656E3A2025640D0A000000B2
:103E3000546970733A0953656E6420436D6452652A
:103E400073700D0A00000000546970733A094D51F7
:103E50005454205075626C6973682053656E6420F9
:103E60004F4B0D0A000000006E756D62657220698F
:103E7000733A25640D0A000020D00B2D18D0142DA4
:103E800062D127E01E2D31D01F2D29D0282D5BD1E6
:103E900038E03D2D44D006DC322D3DD0332D37D0D7
:103EA0003C2D51D141E0462D49D0472D4CD141E028
:103EB00008222CA12E48FDF766FD45E009222DA120
:103EC0002B48FDF760FD3FE008222DA12848FDF7B3
:103ED0005AFD39E009222DA12548FDF754FD33E0B4
:103EE00008222DA12248FDF74EFD2DE009222DA12B
:103EF0001F48FDF748FD27E008222DA11C48FDF7CB
:103F000042FD21E009222DA11948FDF73CFD1BE0EF
:103F100000202D49086017E001202B49086013E0BC
:103F200000202949091D08600EE001202649091DCD
:103F3000086009E000202449091F086004E001200E
:103F40002149091F086000BF00BF0F2E01D0032EBA
:103F500005D1069801F09AF9079801F097F900BF8A
:103F6000D8E500006F70656E4C45443100000000DC
:103F700000480040636C6F73654C4544310000009D
:103F80006F70656E4C45443200000000636C6F73C7
:103F9000654C4544320000006F70656E4C454433FB
:103FA00000000000636C6F73654C454433000000F3
:103FB0006F70656E4C45443400000000636C6F7395
:103FC000654C454434000000B481214270B504467C
:103FD0000E460025206898B901202073304601F074
:103FE00026F920602068E0B100206060A66003E050
:103FF0000020216848556D1CA068A842F8D810E040
:104000000220207303E00020216848556D1CA06841
:10401000A842F8D800206060A068B04201D2002019
:10402000206070BD10B50446207B012802D12068B5
:1040300001F02CF9002020606060A060207310BDAA
:104040000246002301230DE002F07F000870D20930
:104050002AB1087840F080000870491C01E0184639
:1040600070475B1C042BEFDD4FF0FF30F8E7F0B535
:1040700004460D462646012300201060002114E06E
:10408000775C07F07F07106807FB03001060705C27
:1040900000F0800008B9481CF0BDDB01B3F5001F3B
:1040A00002D36FF00100F7E7491CA942E8DB4FF0AB
:1040B000FF30F1E7F8B50446FF2720780511012D00
:1040C00001DB0E2D01DD3846F8BD032D24D1002083
:1040D00000906A460421601CFFF7C9FF2044461C7B
:1040E0000098022803D3207800F0010008B1FF20D7
:1040F000EAE77078317840EA0120801C0099884214
:1041000001D9FF20E0E7F8A1B01C01F0E6FA08B100
:104110000F2700E0032700E02F463846D4E72DE9BB
:10412000FF4F83B082468B469146159C00250020A8
:1041300002900F270190484601F005FB0FFA80F826
:10414000B9F1000F03D1012007B0BDE8F08F08F1ED
:104150000200384487B2109808B145F00205129861
:1041600078B145F00405129801F0EDFAC0B2029062
:10417000139801F0E8FA01460298001D08443844FB
:1041800087B2119820B1012804D0022808D104E098
:1041900000BF07E045F00C0504E045F0140501E020
:1041A0000220D1E700BF149808B145F02405BAF108
:1041B000000F02D0BBF1000F01D10320C4E745F08E
:1041C000C005504601F0BFFA0646584601F0BBFA5A
:1041D0003044001D384487B239462046FFF7F6FECA
:1041E000206808B90420AFE73946206801F01BFBBE
:1041F00010216268501C606020688154D4E900235B
:10420000D118781FFFF71CFF00B201900198002819
:1042100004DA2046FFF706FF052095E7616801985C
:104220000844606000216268501C6060206881540E
:1042300004216268501C6060206881544D216268CE
:10424000501C60602068815451216268501C60607D
:104250002068815454216268501C60602068815439
:104260006268501C60602068815404216268501CA0
:104270006060206881546168481C60602068455413
:104280000698010A6268501C606020688154069894
:10429000C1B26268501C606020688154C8F3072175
:1042A0006268501C6060206881546268501C6060C5
:1042B000206800F80280D4E9001288184246494676
:1042C00001F0F9F960684044606005F00400B8B39B
:1042D0000026139808B986A01390129801F033FABB
:1042E00086B2310A6268501C60602068815462683E
:1042F000501C606020688654D4E900128818324649
:10430000129901F0D8F9606830446060139801F0A8
:104310001AFA86B2310A6268501C606020688154C3
:104320006268501C606020688654D4E900128818C6
:104330003246139901F0BFF960683044606000BFF5
:1043400005F08000C8B1504601F0FDF986B2310A8F
:104350006268501C6060206881546268501C606014
:1043600020688654D4E9001288183246514601F07C
:10437000A2F960683044606000BF05F04000C8B139
:10438000584601F0E0F986B2310A6268501C60605C
:10439000206881546268501C606020688654D4E9AB
:1043A000001288183246594601F085F96068304499
:1043B000606000BF0020C7E610B504460221204619
:1043C000FFF704FE206808B9012010BDE0216268F3
:1043D000501C60602068815400216268501C60603D
:1043E000206881540020F0E701464878022801D077
:1043F00001207047887810B18878012801D1C878E9
:10440000F7E7FF20F5E72DE9FF4F83B0834690469D
:104410009946139C00260025002002900190002759
:10442000BBF1000F03D1012007B0BDE8F08F0025DC
:104430000AE00498405D232803D00498405D2B28AF
:1044400001D10220F0E76D1C0498405D0028F0D1F6
:1044500047F03007119808B147F0010705EB090054
:10446000861C109820B1012804D002280AD105E04A
:1044700000BF09E047F00207B61C05E047F004075B
:10448000B61C01E00320CFE700BF98F80000022827
:1044900022D14FF0000A00BF50460AF1010A18F875
:1044A00000007D28F8D1AAF1030A0AF10700029062
:1044B0000298A9EB000AF01CA0EB0A012046FFF7C6
:1044C00085FD206808B90420AEE7F21CA2EB0A01C2
:1044D000206801F0A8F911E0F11C2046FFF776FDF5
:1044E000206838B904209FE72463726571000000DA
:1044F00000000000F11C206801F095F96168481C7B
:10450000606020684754D4E9000281183046FFF704
:1045100097FD01900198002804DA2046FFF782FDFC
:10452000052081E76168019808446060C5F30721B0
:104530006268501C6060206881546268501C606032
:1045400020688554D4E9001288182A46049901F09D
:10455000B2F8606828446060109860B14FEA1B218F
:104560006268501C6060206881546268501C606002
:10457000206800F802B0B8F1000F19D098F80000D8
:1045800002280BD1D4E9001288184146029A01F0A2
:1045900005F9616802980844606009E0D4E90012F6
:1045A00088184A46414601F0F9F86068484460605E
:1045B000002039E72DE9FF4107460D4690461E468B
:1045C0000A9C01200021CDE90001EB1C0A46FAA15A
:1045D000CDE902040A20FFF716FF88B96168481C7C
:1045E000606020684654C5F307216268501C606013
:1045F000206881546268501C60602068855403E024
:10460000012004B0BDE8F0810020FAE72DE9F04F69
:1046100085B080460D469146012004900027002673
:1046200000244FF0000A404601F08DF800F10D0B18
:10463000584600F0FCFD07461FB9049805B0BDE8D8
:10464000F08F4246DDA1384600F06EFE384601F09C
:104650007AF8C6B2F01D00EB050AAAEB050000F0DF
:10466000E6FD044624B9384600F010FE0498E5E75C
:104670000220207000206070A67032463946E01C8F
:1046800001F08CF8290EF01C2154C5F30741301DB0
:104690002154C5F30721701D2154B01D255401205C
:1046A0000021CDE9000153462246C3A1CDE902090C
:1046B0000A20FFF7A8FE08B900200490384600F051
:1046C000E5FD204600F0E2FD0498B7E72DE9F84348
:1046D00080460C4615461E462F2108F1060000F0C4
:1046E000E0FF07460020009017B90120BDE8F883DD
:1046F0007F1C6A46042108F10100FFF7B8FC252061
:1047000000F095FD2060206808B90220EEE7252121
:10471000206801F088F824223946206801F03EF82C
:10472000243700982C3830803188481C00F07FFDF9
:104730002860286820B9206800F0A8FD0320D5E78C
:104740003288511C286801F06EF832883946286892
:1047500001F024F80020C9E72DE9FF5F07460D4668
:104760009046384600F0EFFF86B2284600F0EBFF97
:104770001FFA80FA4FF00009B01D00F058FD044602
:104780001CB9012004B0BDE8F09FB11D204601F026
:104790004AF88EA0016821608088A08032463946A0
:1047A000204600F088FF284600F0CDFF8346012018
:1047B000002100915B462A46CDE90208019121467D
:1047C0000A20FFF720FE10B94FF0000901E04FF07A
:1047D0000109204600F05AFD4846D3E72DE9FF5F66
:1047E0008046174699460E9C0026B246B3460025E1
:1047F000B8F1000F03D1012004B0BDE8F09F0BE039
:1048000057F8250008B90220F6E757F8250000F010
:104810009AFF0644681CC5B24D45F1DB09EB49001F
:10482000801C00EB060A0AF105012046FFF7CEFBCB
:10483000206808B90320DFE782216268501C6060AD
:1048400020688154D4E9000281185046FFF7F8FB34
:104850000FFA80FBBBF1000F04DA2046FFF7E2FB02
:104860000420C9E76068584460604FEA1821626814
:10487000501C6060206881546268501C6060206831
:1048800000F80280002524E057F8250000F05BFFC7
:104890000646C6F307216268501C60602068815498
:1048A0006268501C606020688654D4E90023D018E8
:1048B00057F82510324600F0FEFE60683044606014
:1048C0000198C1B26268501C606020688154681C05
:1048D000C5B24D45D8DB00208EE70146FF208A781F
:1048E000A2B9CA78142A11D10A7932B1012A05D0A5
:1048F000022A04D0802A06D103E000BF00BF0020B6
:1049000003E0012001E0022000BF00BF70472DE955
:10491000F05F80460F4691461C460026B246B346DD
:104920000025B8F1000F02D10120BDE8F09F0BE097
:1049300057F8250008B90220F7E757F8250000F0DE
:1049400002FF0644681CC5B24D45F1DB022000EBB6
:10495000490000EB060A0AF105012046FFF736FB85
:10496000206808B90320E0E7A2216268501C60605B
:1049700020688154D4E9000281185046FFF760FB9B
:104980000FFA80FBBBF1000F04DA2046FFF74AFB69
:104990000420CAE76068584460604FEA18216268E2
:1049A000501C6060206881546268501C6060206800
:1049B00000F8028000252BE0246470007B226473E1
:1049C0005F6964223A222573227D0000246372739A
:1049D000702F000057F8250000F0B5FE0646C6F31C
:1049E00007216268501C6060206881546268501C16
:1049F000606020688654D4E90023D01857F8251049
:104A0000324600F058FE606830446060681CC5B2F1
:104A10004D45DFDB002088E7014601208A781AB97E
:104A2000CA781E2A00D1002070472DE9FC5F81461C
:104A30000D4614461E46DDE90C8B99F8000000F087
:104A40000F0A002001900AF008000090CAF341000C
:104A50008BF8000001AA042109F10100FFF707FB10
:104A60004844471C0198022802D30AF0010010B103
:104A7000FF20BDE8FC9F7878397840EA012020804B
:104A80002088801C0199884201D9FF20F1E7AFF20C
:104A9000A851B81C00F021FE08B10F20E9E79BF8EF
:104AA000000020B101283DD0022877D13BE00098DA
:104AB00008B1FF20DDE72188481C00F0B8FB286022
:104AC000286808B9FF20D4E72288511C286800F024
:104AD000AAFE2288B91C286800F060FE0198801E9A
:104AE0002188401AA8F80000B8F80010481C00F00F
:104AF0009EFB3060306820B9286800F0C7FBFF20BB
:104B0000B7E7B8F80020511C306800F08CFEB8F808
:104B10000020B4F800C0BB1C0CEB0301306800F0AF
:104B20003DFE4FE000BF2088801C0199884201D9DA
:104B3000FF209EE72088C01C395C2088801C385CE0
:104B400041EA00210E9801800E9808B9FF2090E7F5
:104B50002188481C00F06BFB2860286808B9FF20FA
:104B600087E72288511C286800F05DFE2288B91C66
:104B7000286800F013FE0198001F2188401AA8F849
:104B80000000B8F80010481C00F051FB306030689D
:104B900028B9286800F07AFBFF206AE710E0B8F82F
:104BA0000020511C306800F03EFEB8F80020B4F838
:104BB00000C03B1D0CEB0301306800F0EFFD01E08D
:104BC000FF2056E700BF2B21284600F06AFD20B9E0
:104BD0002321284600F065FD08B1FF2049E70020A9
:104BE00047E770B505460C4604212046FFF7EEF96D
:104BF000206808B9012070BD40216268501C6060C7
:104C00002068815402216268501C606020688154D1
:104C100029126268501C6060206881546268501CD0
:104C20006060206885540020E5E701464878022846
:104C300001D001207047887820B9C8780A2801D1AE
:104C40000020F7E70120F5E770B505460C46042182
:104C50002046FFF7BBF9206808B9012070BD50213C
:104C60006268501C60602068815402216268501C98
:104C700060602068815429126268501C606020685E
:104C800081546268501C6060206885540020E5E70C
:104C900001464878022801D001207047887820B961
:104CA000C8780A2801D10020F7E70120F5E770B5A0
:104CB00005460C4604212046FFF788F9206808B90C
:104CC000012070BD62216268501C606020688154C0
:104CD00002216268501C6060206881542912626859
:104CE000501C6060206881546268501C60602068BD
:104CF00085540020E5E702465078022801D00120C3
:104D000070479078B0EB112F05D1D078CBB2984294
:104D100001D10020F4E70120F2E770B505460C460A
:104D200004212046FFF752F9206808B9012070BD20
:104D300070216268501C60602068815402216268A2
:104D4000501C60602068815429126268501C6060A9
:104D5000206881546268501C60602068855400207F
:104D6000E5E701464878022801D00120704788789D
:104D700020B9C8780A2801D10020F7E70120F5E71B
:104D800010B5044602212046FFF720F9206808B933
:104D9000012010BDC0216268501C606020688154F1
:104DA00000216268501C6060206881540020F0E798
:104DB00010B58021A24800F036FD0020A1490880EE
:104DC00010BDA048008808B9012070479D480088A0
:104DD0009D490988884203D100209A490880F4E758
:104DE00098480088984908800120EEE72DE9F041B5
:104DF00004460D46C826204600F0A5FC87B23A4678
:104E000021469248FCF7BFFD0FE0FFF7DAFF48B9F3
:104E100029468B4800F061FC20B1FFF7C9FF002054
:104E2000BDE8F0810A20FCF75AFC3000A6F1010130
:104E3000CEB2EAD10120F3E730B589B004460D4681
:104E4000FFF7B6FF2A4682A101A800F06DFA84A1FF
:104E500001A8FFF7CBFF20B92A4621467B48FCF783
:104E600092FD09B030BD70B5054600BFFFF7A9FF40
:104E700080B97CA1724800F030FC044654B13A215C
:104E8000204600F00EFC044614B1641C204670BDA0
:104E90000020FCE70A20FCF722FC2800A5F1010114
:104EA0008DB2E3D100BFF2E710B5FFF781FF6FA12C
:104EB0007048FCF781FD03E04FF4FA70FCF70FFC3B
:104EC0006DA16EA0FFF792FF0028F5D16DA1694892
:104ED000FCF772FD03E04FF4FA70FCF700FC6DA1E3
:104EE00070A0FFF783FF0028F5D171A16148FCF79E
:104EF00063FD03E04FF4FA70FCF7F1FB70A171A0C1
:104F0000FFF774FF0028F5D171A15A48FCF754FD52
:104F100003E04FF4FA70FCF7E2FB69A170A0FFF721
:104F200065FF0028F5D171A15248FCF745FD03E06B
:104F30004FF4FA70FCF7D3FB70A172A0FFF756FF95
:104F40000028F5D173A14B48FCF736FD03E04FF480
:104F5000FA70FCF7C4FB48A173A0FFF747FF0028D5
:104F6000F5D176A14348FCF727FD03E04FF4FA7032
:104F7000FCF7B5FB40A179A0FFF738FF0028F5D179
:104F80007DA13C48FCF718FD03E04FF4FA70FCF7F4
:104F9000A6FB39A17CA0FFF729FF0028F5D17EA14F
:104FA0003448FCF709FD03E04FF4FA70FCF797FB77
:104FB00031A17EA0FFF71AFF0028F5D17FA12D486F
:104FC000FCF7FAFC03E04FF4FA70FCF788FB2AA127
:104FD0007BA0FFF70BFF0028F5D17DA12548FCF74A
:104FE000EBFC03E04FF4FA70FCF779FB7DA17FA0A6
:104FF000FFF7FCFE0028F5D187A11E48FCF7DCFC7A
:1050000010BD10B540F225511048FDF717FBB0B1A7
:105010000C480088802802D300200A4908800B48E9
:10502000001D0088C1B2074802880088401C054B5B
:1050300018800348815420210448FDF7F6FA10BD7A
:1050400048000020420000204400002000440040AE
:1050500041542B43495053454E443D25640D0A00AD
:105060003E0000004950442C00000000312E204139
:10507000540D0A00003801404F4B000041540D0A06
:1050800000000000322E2041542B4350494E3F0D6A
:105090000A0000002B4350494E3A205245414459E2
:1050A0000000000041542B4350494E3F0D0A0000C0
:1050B000332E2041542B435245473F0D0A00000038
:1050C000302C310041542B435245473F0D0A00001C
:1050D000342E2041542B43475245473F0D0A0000D0
:1050E00041542B43475245473F0D0A00352E20417E
:1050F000542B434950534855540D0A0053485554B6
:10510000204F4B0041542B434950534855540D0AEE
:1051100000000000362E2041542B4347434C41539E
:10512000533D2242220D0A0041542B4347434C4138
:1051300053533D2242220D0A00000000372E204129
:10514000542B434744434F4E543D312C2249502267
:105150002C22434D4E4554220D0A000041542B434E
:105160004744434F4E543D312C224950222C224378
:105170004D4E4554220D0A00382E2041542B4347F2
:105180004154543D310D0A0041542B43474154547E
:105190003D310D0A00000000392E2041542B4349B7
:1051A000504D55583D300D0A0000000041542B432E
:1051B00049504D55583D300D0A00000031302E2029
:1051C00041542B434950484541443D310D0A0000AC
:1051D00031312E2041542B43495053544152540DE8
:1051E0000A000000434F4E4E4543540041542B43A8
:1051F000495053544152543D22544350222C2231A1
:1052000038332E3233302E34302E3339222C363090
:1052100030320D0A0000000031322E204D3533317E
:105220003020496E6974204F4B0D0A00704770B5ED
:10523000064600F045FB056806F10B0020F0070468
:10524000B4429CBF002070BD2B466A68BAB110689A
:10525000A04210D304F1080188423CBF5068586056
:1052600007D35168101941601168091B016058602B
:105270001460101D70BD13465268002AE7D1214604
:10528000284600F029FB0028DED170BD70B5044629
:10529000051F00F015FB0068002C14BF446870BDAA
:1052A000002C18BFAC423CBF20466468F8D30168AC
:1052B0000A18AA4218BF456003D12A68054611445E
:1052C000016028684119A1421CBF6C6070BD616813
:1052D000696021680844286070BD00007CB51D46E7
:1052E00016460C00009001D02044401E074B7B4422
:1052F0002A4669460190304600F0C9FD05461CB1BA
:105300000020694600F0D6FD28467CBDCD0B00008C
:105310000FB4044910B503AA029800F0EFFD10BCC9
:105320005DF814FB280000200FB41CB5084B06AA3A
:105330007B4469460090059800F0A9FD04460020D2
:10534000694600F0B7FD20461CBC5DF814FB000068
:10535000810B000070B5044685690068C10601D55F
:10536000302600E02026C00707D070BDD4E9012117
:1053700030469047206A401C20626D1EF6D570BDF5
:1053800070B5044685690078C00707D170BDD4E9BF
:10539000012120209047206A401C20626D1EF6D516
:1053A00070BD70B50C460546012A05D028788006E8
:1053B00000D5EA69002302E0012305E05B1C93426B
:1053C00002D2E05C0028F9D1A869E618C01AA861E9
:1053D000286A184428622846FFF7BCFF04E0D5E994
:1053E000012114F8010B9047B442F8D32846FFF787
:1053F000C7FF70BD2DE9F0410646002410687529ED
:10540000314616A510D000F0B1FA002802DA404269
:1054100013A507E031688A0701D512A502E0490704
:1054200004D511A5012401E000F0A9FA00210A2207
:1054300006F1240709E0B0FBF2FCB0FBF2F302FB3B
:105440001C00303078541846491C0028F3D12346FC
:105450002A463046BDE8F04100F09ABA000000004C
:105460002D0000002B00000020000000F0B40D46CD
:105470000188090502D5214C7C4402E01F4C7C4484
:105480000E34002100F1240608E002F00F07120993
:10549000E75D42EA03721B097754491C52EA03078D
:1054A000F3D102780023120704D5702D06D009B17C
:1054B000022311342246F0BC00F06ABA01231034F2
:1054C000F8E770B504460D462146106800F057FA1B
:1054D000024629462046BDE870400023C6E7D21D9B
:1054E00022F00703D3E90023C0E70368126843F002
:1054F000200303600823C3610023B7E7EC22000008
:105500002DE9F05F894604464FF0000ADFF874B1D8
:10551000FB44C0F820A02046E1688847002874D0EA
:10552000252806D0D4E901219047206A401C20623A
:10553000F1E700265F462046E168884720280546B7
:1055400007DB312D05D2781910F8200C08B106437D
:10555000F1E7B00701D526F00406C4F81CA0002727
:10556000C4F818A02A2D09D0284601F055FC38B3FC
:1055700004EB8708303DC8F8185019E059F8041BAF
:10558000204604EB87029161E1688847012F0546B8
:1055900018D1E069002820DA26F020061DE0D8F8AE
:1055A000180000EB800005EB40003038C8F8180008
:1055B0002046E1688847054601F02EFC0028EED120
:1055C000012F0AD02E2D08D12046E16888477F1C84
:1055D0000546022F46F02006C4DBA069002803DA46
:1055E000404246F00106A061F00701D026F0100607
:1055F0006C2D0BD0682D09D04C2D39D06A2D35D0AB
:10560000742D35D07A2D33D016E038E0E1682F467E
:1056100020468847B842054609D16C2F26D04FF462
:105620008060E168064320468847054604E06C2F09
:105630001AD04FF4807006430DB3A5F1410019282C
:1056400002D8203546F400664A46294620462660A0
:105650004E46FAF7A7FD80B101280BD0F61D26F0C3
:10566000070000F1080956E74020E4E78020D8E76A
:105670000020D6E706F104094DE7284652E7206AE4
:10568000BDE8F09F7C22000070B5064600F01CF9D2
:105690000468054630460A22002100F015FD2C6002
:1056A00070BD401ECAB210F8011F8A4202D0002904
:1056B000F9D10020704710B5431E13F8014F002C9C
:1056C000FBD105E011F8014B002C03F8014B03D08E
:1056D000521EF7D20021197010BD30B505460B4699
:1056E0002A4613F8014B12F8010B08B1A042F8D07A
:1056F0001CB1002802D06D1CF1E7284630BD40EAFD
:105700000103024630B59B0710D14FF0013400E091
:1057100008C208C91D1B9D4315EAC41FF8D013F029
:10572000FF0102F8011B0DD01B0AF8E711F8013B3D
:10573000002B02F8013B05D011F8013B002B02F8C9
:10574000013BF3D130BD10B5431C02E010F8011B42
:1057500071B18107FAD14FF0013202C88C1A8C4323
:1057600014EAC211F9D0C01A0A0603D0C01E10BD37
:10577000C01A10BD0A0401D0801E10BD0902FCD061
:10578000401E10BD421E12F8013F002BFBD111F844
:10579000013B002B02F8013BF9D17047032A40F28C
:1057A000308010F0030C00F0158011F8013BBCF1C3
:1057B000020F624498BF11F801CB00F8013B38BFDB
:1057C00011F8013BA2F1040298BF00F801CB38BFE9
:1057D00000F8013B11F0030300F0AE84083AC0F07A
:1057E000088051F8043B083A51F804CBA0E80810AF
:1057F000F5E7121D5CBF51F8043B40F8043BAFF3E2
:105800000080D20724BF11F8013B11F801CB48BF3B
:1058100011F8012B24BF00F8013B00F801CB48BF71
:1058200000F8012B70474FF000020429C0F01280ED
:1058300010F0030C00F01B80CCF1040CBCF1020F43
:1058400018BF00F8012BA8BF20F8022BA1EB0C0118
:1058500000F00DB85FEAC17C24BF00F8012B00F80E
:10586000012B48BF00F8012B70474FF0000200B534
:10587000134694469646203922BFA0E80C50A0E873
:105880000C50B1F12001BFF4F7AF090728BFA0E821
:105890000C5048BF0CC05DF804EB890028BF40F8ED
:1058A000042B08BF704748BF20F8022B11F0804F2F
:1058B00018BF00F8012B704770477047704770475A
:1058C00000487047D000002000487047C800002002
:1058D000704770477047704738B504460A46002045
:1058E0006946AFF30080002808BF38BD0246009922
:1058F000204600F063FC012038BD012000F0F6BD19
:10590000F8B5AFF30080054600200C46102000BF1C
:105910000646A819A0420DD9324669460020AFF3C9
:105920000080070008BF00F0E1FD0098A04218BF0A
:105930000546C419FFF7C4FF05600746F01D20F0B7
:1059400007004619284600F00AF8B44208BFF8BD1F
:10595000A21B31463868BDE8F84000F02FBC00219A
:105960000160C0E9011070471020704709684A05BE
:1059700001D540B27047C905FCD500B2704709682F
:105980004A0501D5C0B27047C905FCD580B2704741
:105990002DE9F0470D4699469246044600F1240849
:1059A0000168880604D5E06921F01001216000E05B
:1059B0000120A84201DD471B00E00027A1697A19F8
:1059C00002EB0900081AA0612078C00602D4204624
:1059D000FFF7C0FC002608E0D4E901211AF8060010
:1059E0009047206A401C761C20624E45F4DB2078EC
:1059F000C0060AD52046FFF7ADFC06E0D4E9012138
:105A000030209047206A401C2062381EA7F1010711
:105A1000F4DC07E0D4E9012118F805009047206A7A
:105A2000401C2062281EA5F10105F3DC2046FFF78B
:105A3000A7FC2078000602D50220BDE8F0870120EF
:105A4000FBE711680268006A530501D508700AE097
:105A5000D30501D5088006E0130603D5C217C1E9B6
:105A6000000200E008600120704770472DE9FF4FF9
:105A70000C461E464FF0FF378BB0D2E90001DDF82F
:105A800060800A908A46C1F30A5505B93D46002157
:105A900008464FF00000BAF1000F00F4400005DAAC
:105AA00000EB80004FF4400101EA50004FEA9059AA
:105AB000B9F1010F00DDB9460A9850EA4A000ED04C
:105AC00044F61050A5F2FF3545432F14B8F1000FEE
:105AD0001ED07542291E1EDDC9F100021CE0B8F17E
